:0A009C007508FD7509E8AF09AE080C
:0A00A600EF1F70011E144E70F722C8
:10000300E4F5907590017580C012009C759002759F
:1000130080F912009C7590047580A412009C759061
:10002300087580B012009C75900175809912009C30
:1000330075900275809212009C75900475808212EF
:10004300009C7590087580F812009C75900175806E
:100053008012009C75900275809012009C7590042C
:1000630075800812009C75900875800312009C75BA
:10007300900175804612009C7590027580211200D4
:100083009C75900475800612009C75900875800E0F
:0900930012009C12009C02000600
:030000000200B04B
:0C00B000787FE4F6D8FD7581090200039A
:00000001FF
