:030000000200E714
:0C00E700787FE4F6D8FD7581070200CC9C
:1000AC00E4FDFCC3ED9FEC9E5015E4FBFA0BBB008A
:0F00BC00010AEB64784A70F50DBD00010C80E479
:0100CB002212
:10000300EF14B4080040030200AB90001B75F0032B
:10001300A4C58325F0C583730200330200440200A4
:100023005502006302007102007F02008D02009BF3
:10003300D290C297C296C295C294C293C292C29101
:1000430022D291C297C296C295C294C293C292C25F
:100053009022D292C297C296C295C294C293804410
:10006300D293C297C296C295C294C2928036D2945A
:10007300C297C296C295C293C2928028D295C29764
:10008300C296C294C293C292801AD296C297C29564
:10009300C294C293C292800CD297C296C295C29464
:0900A300C293C292C291C29022E4
:1000CC00E4F9E9C394097480948050F4AF011200F0
:0B00DC00037FF47E011200AC0980E7F6
:00000001FF
