:03000000020152A8
:0C015200787FE4F6D8FD75811E0201994B
:0C01F2000A15C0F9A4B0999282F8809020
:0401DE00F8E6F580CA
:0F01E2007F017E000FBF00010EEF64054E70F528
:0101F10022EB
:10000300E4F50CF50DF50AF50BF582F583F50EF520
:100013000FE4F510F511E4F512F513E4FCFDE4FA31
:10002300FBE4F50AF50BE4F50CF50DE4F583F58235
:10003300750800750964AF8274152FF8E6F58075AD
:1000430090FE1201E27590FF7590FD7415250D1257
:1000530001DE7590FF7590FB7415250B1201DE759B
:1000630090FF7590F774152B1201DE7590FF759054
:10007300EF74152D1201DE7590FF7590DF74152551
:10008300131201DE7590FF7590BF741525111201CF
:10009300DE7590FF75907F7415250F1201DE759044
:1000A300FFE509150970021508D3E5099400E50871
:1000B300648094805080A3E582640A4583600302D0
:1000C3000033050DE50D7002050CC3940AE50C64BD
:1000D300809480500302002E050BE50B7002050A85
:1000E300C3940AE50A6480948050030200290BBB81
:1000F30000010AEB640A4A60030200240DBD0001FB
:100103000CED640A4C60030200210513E513700231
:100113000512C3940AE51264809480500302001E02
:100123000511E51170020510C3940AE5106480946B
:10013300805003020019050FE50F7002050EC394EA
:0F0143000AE50E6480948050030200140200034A
:10015E00020003E493A3F8E493A34003F68001F2B4
:10016E0008DFF48029E493A3F85407240CC8C333A2
:10017E00C4540F4420C8834004F456800146F6DF71
:10018E00E4800B01020408102040809001F2E47E0E
:10019E00019360BCA3FF543F30E509541FFEE49366
:1001AE00A360010ECF54C025E060A840B8E493A32D
:1001BE00FAE493A3F8E493A3C8C582C8CAC583CA58
:1001CE00F0A3C8C582C8CAC583CADFE9DEE780BE10
:0101FE000000
:00000001FF
