:03000000020003F8
:0C000300787FE4F6D8FD75812802004AE1
:100137000A12C0F9A4B0999282F880900A08FFFECB
:08014700FCF8F0E0C08000FFAD
:10010B0074122DF8E6F5807590FE1201277590FF9D
:0C011B007590FDAF8274122FF8E6F5809D
:0F0127007F017E000FBF00010EEF64644E70F584
:0101360022A6
:10008F00E4F526F527900000AF8274082FF8E6F507
:10009F00A0E4FCFD7A007B6412010B7590FFEB1B53
:1000AF0070011AEB4A70F10DBD00010CED640A4CA2
:1000BF0070E2A3E5826409458370CD900008C3E523
:1000CF00836480948040BEAF8274082FF8E6F5A059
:1000DF007C007D097A007B6412010B7590FFEB1B8E
:1000EF0070011AEB4A70F1ED1D70011CBCFFE5BDEC
:0C00FF00FFE2E582158270C6158380C206
:10000F0002008FE493A3F8E493A34003F68001F278
:10001F0008DFF48029E493A3F85407240CC8C333F2
:10002F00C4540F4420C8834004F456800146F6DFC1
:10003F00E4800B0102040810204080900137E47E19
:10004F00019360BCA3FF543F30E509541FFEE493B6
:10005F00A360010ECF54C025E060A840B8E493A37D
:10006F00FAE493A3F8E493A3C8C582C8CAC583CAA8
:10007F00F0A3C8C582C8CAC583CADFE9DEE780BE60
:01014F0000AF
:00000001FF
