:030000000200A952
:0C00A900787FE4F6D8FD7581220200F09B
:10023D00140A00C000F900A400B0009900920082D9
:06024D0000F800800090A3
:0B021A0025E0240AF808E6F580D2A4D5
:10022500E4FDFCC3ED9FEE6480F8EC648098500714
:070235000DBD00010C80EC7F
:01023C00229F
:1001EB00AE1FAF207C007D641201968F1EAE1FAF39
:1001FB00207C007D0A1201967C007D0A1201968DEF
:0F020B0009AE1FAF207C007D0A1201968D0822DC
:10013500EF64014E7006C293C292C291EF64024E03
:100145007006C293C292D291EF64034E7006C293B9
:10015500D292C291EF64044E7006C293D292D291AC
:10016500EF64054E7006D293C292C291EF64064EBB
:100175007006D293C292D291EF64074E7006D29365
:10018500D292C291EF64084E7006D293D292D29168
:010195002247
:05000300D294E4FBFAB9
:10000800E4F521F52275A001EB25E0240CF808E6BB
:10001800F580C2A47FE87E03120225C296C290D260
:1000280095EB2401FFE43AFE1201357F647E00124D
:100038000225D296D2907FF40E120225C296C29063
:100048003095FD7F647E00120225D295AFB08E1FD9
:100058008F201201EB75A002E51E25E0240AF8089E
:10006800E6F580D2A47FF47E0112022575A004E58E
:100078000912021A75A008E50812021A0522E522DB
:1000880070020521C3941EE5216480948050030208
:02009800000D59
:0E009A000BBB00010AEB64084A600302000879
:0100A8002235
:1000B500020003E493A3F8E493A34003F68001F25E
:1000C50008DFF48029E493A3F85407240CC8C3334C
:1000D500C4540F4420C8834004F456800146F6DF1B
:1000E500E4800B010204081020408090023DE47E6C
:1000F500019360BCA3FF543F30E509541FFEE49310
:10010500A360010ECF54C025E060A840B8E493A3D6
:10011500FAE493A3F8E493A3C8C582C8CAC583CA01
:10012500F0A3C8C582C8CAC583CADFE9DEE780BEB9
:0102530000AA
:10019600BC000BBE0029EF8DF084FFADF022E4CC4D
:1001A600F875F008EF2FFFEE33FEEC33FCEE9DEC16
:1001B600984005FCEE9DFE0FD5F0E9E4CEFD22ED5C
:1001C600F8F5F0EE8420D21CFEADF075F008EF2FA6
:1001D600FFED33FD4007985006D5F0F222C398FD97
:0501E6000FD5F0EA2234
:00000001FF
