:04000300020C0000EB
:0B013900EF1FAC0670011E4C70F62298
:10011A00758901D2A9D28CD2AFE4F5A07F987E3A34
:0F012A0012013975A0FF7F987E3A12013980E1EA
:03000B0002009A56
:10009A00C0E0C0D075D000C000C004C005C006C012
:0100AA00074E
:1000AB00750B50750AC3750900750800050DE50D34
:1000BB007002050C758CFC758A18D28CC3E50D94F7
:1000CB0010E50C648094A74017750C00750D00C2E9
:1000DB0093780874FF1200FCEC4D4E4F70F3D293E3
:0F00EB00D007D006D005D004D000D0D0D0E0325E
:0300000002000EED
:0C000E00787FE4F6D8FD75810D020055E6
:1000FA007401FF3395E0FEFDFC080808E6CF2FF6F1
:10010A0018E6CE3EF618E6CD3DF618E6CC3CF622C9
:10001A0002011AE493A3F8E493A34003F68001F2E1
:10002A0008DFF48029E493A3F85407240CC8C333E7
:10003A00C4540F4420C8834004F456800146F6DFB6
:10004A00E4800B0102040810204080900003E47E43
:10005A00019360BCA3FF543F30E509541FFEE493AB
:10006A00A360010ECF54C025E060A840B8E493A372
:10007A00FAE493A3F8E493A3C8C582C8CAC583CA9D
:10008A00F0A3C8C582C8CAC583CADFE9DEE780BE55
:0100070000F8
:00000001FF
