:1000EB004241554452415445203936303020383046
:1000FB003531204D4943524F434F4E54524F4C4C88
:10010B0045522046494E414C2050524F4A4543548C
:05011B0020200A0D0088
:080018008F993099FDC2992275
:0600B3008B088A09890A8E
:1000B9001200038E0B8F0CE4FDFCC3ED950CE50BD0
:1000C9006480F8EC6480985018AB08AA09A90A8DD5
:1000D900828C8312006DFF1200180DBD00010C8087
:0100E900D93D
:0100EA0022F3
:0F012000758920759850758DFDD28E75A8902227
:03002300020026B2
:10002600C0E0C0D0E5A0600585990DC298E50D2415
:10003600CF600D04701CC2A0C2A2C2A4C2A6801AC0
:10004600D2A0D2A2D2A4D2A6C2A1C2A3C2A5C2A73E
:100056008010D2A0D2A2D2A4D2A6D2A1D2A3D2A5D7
:07006600D2A7D0D0D0E03298
:0E012F001201207BFF7A0079EB1200B380F5FD
:0300000002013DBD
:0C013D00787FE4F6D8FD75810F02012FD9
:10006D00BB010CE58229F582E5833AF583E0225048
:10007D0006E92582F8E622BBFE06E92582F8E22292
:0D008D00E58229F582E5833AF583E49322AC
:10000300E4FFFE12009A600C0FEF70010E09E97015
:05001300F20A80EF225B
:10009A00BB010689828A83E0225002E722BBFE0264
:0900AA00E32289828A83E4932297
:00000001FF
